{
  "_format": "hh-sol-artifact-1",
  "contractName": "EthCoffee",
  "sourceName": "contracts/EthCoffee.sol",
  "abi": [
    {
      "inputs": [],
      "stateMutability": "payable",
      "type": "constructor"
    },
    {
      "anonymous": false,
      "inputs": [
        {
          "indexed": true,
          "internalType": "address",
          "name": "from",
          "type": "address"
        },
        {
          "indexed": false,
          "internalType": "uint256",
          "name": "timestamp",
          "type": "uint256"
        },
        {
          "indexed": false,
          "internalType": "string",
          "name": "message",
          "type": "string"
        }
      ],
      "name": "CoffeeSent",
      "type": "event"
    },
    {
      "inputs": [
        {
          "internalType": "address",
          "name": "addr",
          "type": "address"
        }
      ],
      "name": "getMessagesSent",
      "outputs": [
        {
          "components": [
            {
              "internalType": "address",
              "name": "from",
              "type": "address"
            },
            {
              "internalType": "string",
              "name": "message",
              "type": "string"
            },
            {
              "internalType": "uint256",
              "name": "timestamp",
              "type": "uint256"
            }
          ],
          "internalType": "struct EthCoffee.Message[]",
          "name": "",
          "type": "tuple[]"
        }
      ],
      "stateMutability": "view",
      "type": "function"
    },
    {
      "inputs": [],
      "name": "getTotalCoffeesSent",
      "outputs": [
        {
          "internalType": "uint256",
          "name": "",
          "type": "uint256"
        }
      ],
      "stateMutability": "view",
      "type": "function"
    },
    {
      "inputs": [
        {
          "internalType": "address",
          "name": "",
          "type": "address"
        }
      ],
      "name": "lastMessagedAt",
      "outputs": [
        {
          "internalType": "uint256",
          "name": "",
          "type": "uint256"
        }
      ],
      "stateMutability": "view",
      "type": "function"
    },
    {
      "inputs": [
        {
          "internalType": "address payable",
          "name": "_to",
          "type": "address"
        },
        {
          "internalType": "string",
          "name": "_message",
          "type": "string"
        }
      ],
      "name": "sendCoffee",
      "outputs": [],
      "stateMutability": "payable",
      "type": "function"
    }
  ],
  "bytecode": "0x6080604052600160008190555061108a8061001b6000396000f3fe60806040526004361061003f5760003560e01c80630ff076c9146100445780632ff4e6e41461006f57806355558573146100ac57806359f52374146100e9575b600080fd5b34801561005057600080fd5b50610059610105565b6040516100669190610c34565b60405180910390f35b34801561007b57600080fd5b5061009660048036038101906100919190610853565b610116565b6040516100a39190610c34565b60405180910390f35b3480156100b857600080fd5b506100d360048036038101906100ce9190610853565b61012e565b6040516100e09190610b52565b60405180910390f35b61010360048036038101906100fe919061087c565b6102be565b005b600061011160016106fa565b905090565b60046020528060005260406000206000915090505481565b6060600260008373ffffffffffffffffffffffffffffffffffffffff1673ffffffffffffffffffffffffffffffffffffffff168152602001908152602001600020805480602002602001604051908101604052809291908181526020016000905b828210156102b357838290600052602060002090600302016040518060600160405290816000820160009054906101000a900473ffffffffffffffffffffffffffffffffffffffff1673ffffffffffffffffffffffffffffffffffffffff1673ffffffffffffffffffffffffffffffffffffffff16815260200160018201805461021890610e2c565b80601f016020809104026020016040519081016040528092919081815260200182805461024490610e2c565b80156102915780601f1061026657610100808354040283529160200191610291565b820191906000526020600020905b81548152906001019060200180831161027457829003601f168201915b505050505081526020016002820154815250508152602001906001019061018f565b505050509050919050565b42601e600460003373ffffffffffffffffffffffffffffffffffffffff1673ffffffffffffffffffffffffffffffffffffffff1681526020019081526020016000205461030b9190610d46565b1061034b576040517f08c379a000000000000000000000000000000000000000000000000000000000815260040161034290610bd4565b60405180910390fd5b80608c815110610390576040517f08c379a000000000000000000000000000000000000000000000000000000000815260040161038790610b94565b60405180910390fd5b600034116103d3576040517f08c379a00000000000000000000000000000000000000000000000000000000081526004016103ca90610bb4565b60405180910390fd5b82600073ffffffffffffffffffffffffffffffffffffffff168173ffffffffffffffffffffffffffffffffffffffff161415610444576040517f08c379a000000000000000000000000000000000000000000000000000000000815260040161043b90610bf4565b60405180910390fd5b6002600054141561048a576040517f08c379a000000000000000000000000000000000000000000000000000000000815260040161048190610c14565b60405180910390fd5b600260008190555042600460003373ffffffffffffffffffffffffffffffffffffffff1673ffffffffffffffffffffffffffffffffffffffff168152602001908152602001600020819055506104e06001610708565b600060405180606001604052808673ffffffffffffffffffffffffffffffffffffffff168152602001858152602001428152509050600260008673ffffffffffffffffffffffffffffffffffffffff1673ffffffffffffffffffffffffffffffffffffffff16815260200190815260200160002081908060018154018082558091505060019003906000526020600020906003020160009091909190915060008201518160000160006101000a81548173ffffffffffffffffffffffffffffffffffffffff021916908373ffffffffffffffffffffffffffffffffffffffff16021790555060208201518160010190805190602001906105e192919061071e565b5060408201518160020155505060008573ffffffffffffffffffffffffffffffffffffffff163460405161061490610b3d565b60006040518083038185875af1925050503d8060008114610651576040519150601f19603f3d011682016040523d82523d6000602084013e610656565b606091505b505090508061069a576040517f08c379a000000000000000000000000000000000000000000000000000000000815260040161069190610b74565b60405180910390fd5b8573ffffffffffffffffffffffffffffffffffffffff167fcc6c28c7f1afae15888a7b43ee6bd97cd5c0c9b9f01d2969108e841141d67da442876040516106e2929190610c4f565b60405180910390a25050600160008190555050505050565b600081600001549050919050565b6001816000016000828254019250508190555050565b82805461072a90610e2c565b90600052602060002090601f01602090048101928261074c5760008555610793565b82601f1061076557805160ff1916838001178555610793565b82800160010185558215610793579182015b82811115610792578251825591602001919060010190610777565b5b5090506107a091906107a4565b5090565b5b808211156107bd5760008160009055506001016107a5565b5090565b60006107d46107cf84610ca4565b610c7f565b9050828152602081018484840111156107ec57600080fd5b6107f7848285610dea565b509392505050565b60008135905061080e81611026565b92915050565b6000813590506108238161103d565b92915050565b600082601f83011261083a57600080fd5b813561084a8482602086016107c1565b91505092915050565b60006020828403121561086557600080fd5b6000610873848285016107ff565b91505092915050565b6000806040838503121561088f57600080fd5b600061089d85828601610814565b925050602083013567ffffffffffffffff8111156108ba57600080fd5b6108c685828601610829565b9150509250929050565b60006108dc8383610acf565b905092915050565b6108ed81610d9c565b82525050565b60006108fe82610ce5565b6109088185610d08565b93508360208202850161091a85610cd5565b8060005b85811015610956578484038952815161093785826108d0565b945061094283610cfb565b925060208a0199505060018101905061091e565b50829750879550505050505092915050565b600061097382610cf0565b61097d8185610d24565b935061098d818560208601610df9565b61099681610f1c565b840191505092915050565b60006109ac82610cf0565b6109b68185610d35565b93506109c6818560208601610df9565b6109cf81610f1c565b840191505092915050565b60006109e7601883610d35565b91506109f282610f2d565b602082019050919050565b6000610a0a601383610d35565b9150610a1582610f56565b602082019050919050565b6000610a2d601a83610d35565b9150610a3882610f7f565b602082019050919050565b6000610a50600883610d35565b9150610a5b82610fa8565b602082019050919050565b6000610a73600083610d19565b9150610a7e82610fd1565b600082019050919050565b6000610a96601583610d35565b9150610aa182610fd4565b602082019050919050565b6000610ab9601f83610d35565b9150610ac482610ffd565b602082019050919050565b6000606083016000830151610ae760008601826108e4565b5060208301518482036020860152610aff8282610968565b9150506040830151610b146040860182610b1f565b508091505092915050565b610b2881610de0565b82525050565b610b3781610de0565b82525050565b6000610b4882610a66565b9150819050919050565b60006020820190508181036000830152610b6c81846108f3565b905092915050565b60006020820190508181036000830152610b8d816109da565b9050919050565b60006020820190508181036000830152610bad816109fd565b9050919050565b60006020820190508181036000830152610bcd81610a20565b9050919050565b60006020820190508181036000830152610bed81610a43565b9050919050565b60006020820190508181036000830152610c0d81610a89565b9050919050565b60006020820190508181036000830152610c2d81610aac565b9050919050565b6000602082019050610c496000830184610b2e565b92915050565b6000604082019050610c646000830185610b2e565b8181036020830152610c7681846109a1565b90509392505050565b6000610c89610c9a565b9050610c958282610e5e565b919050565b6000604051905090565b600067ffffffffffffffff821115610cbf57610cbe610eed565b5b610cc882610f1c565b9050602081019050919050565b6000819050602082019050919050565b600081519050919050565b600081519050919050565b6000602082019050919050565b600082825260208201905092915050565b600081905092915050565b600082825260208201905092915050565b600082825260208201905092915050565b6000610d5182610de0565b9150610d5c83610de0565b9250827fffffffffffffffffffffffffffffffffffffffffffffffffffffffffffffffff03821115610d9157610d90610e8f565b5b828201905092915050565b6000610da782610dc0565b9050919050565b6000610db982610dc0565b9050919050565b600073ffffffffffffffffffffffffffffffffffffffff82169050919050565b6000819050919050565b82818337600083830152505050565b60005b83811015610e17578082015181840152602081019050610dfc565b83811115610e26576000848401525b50505050565b60006002820490506001821680610e4457607f821691505b60208210811415610e5857610e57610ebe565b5b50919050565b610e6782610f1c565b810181811067ffffffffffffffff82111715610e8657610e85610eed565b5b80604052505050565b7f4e487b7100000000000000000000000000000000000000000000000000000000600052601160045260246000fd5b7f4e487b7100000000000000000000000000000000000000000000000000000000600052602260045260246000fd5b7f4e487b7100000000000000000000000000000000000000000000000000000000600052604160045260246000fd5b6000601f19601f8301169050919050565b7f4661696c656420746f207472616e736665722045746865720000000000000000600082015250565b7f4d65737361676520697320746f6f206c6f6e6700000000000000000000000000600082015250565b7f416d6f756e74206d757374206265206d6f7265207468616e2030000000000000600082015250565b7f5761697420333073000000000000000000000000000000000000000000000000600082015250565b50565b7f4d7573742062652076616c696420616464726573730000000000000000000000600082015250565b7f5265656e7472616e637947756172643a207265656e7472616e742063616c6c00600082015250565b61102f81610d9c565b811461103a57600080fd5b50565b61104681610dae565b811461105157600080fd5b5056fea264697066735822122062a2a7ef35269112ec8574858863421d67769418db71ad29537b32cc9fa6278c64736f6c63430008040033",
  "linkReferences": {},
  "deployedLinkReferences": {}
}