{
  "_format": "hh-sol-artifact-1",
  "contractName": "EthCoffee",
  "sourceName": "contracts/EthCoffee.sol",
  "abi": [
    {
      "inputs": [],
      "stateMutability": "payable",
      "type": "constructor"
    },
    {
      "anonymous": false,
      "inputs": [
        {
          "indexed": true,
          "internalType": "address",
          "name": "from",
          "type": "address"
        },
        {
          "indexed": false,
          "internalType": "uint256",
          "name": "timestamp",
          "type": "uint256"
        },
        {
          "indexed": false,
          "internalType": "string",
          "name": "message",
          "type": "string"
        }
      ],
      "name": "CoffeeSent",
      "type": "event"
    },
    {
      "inputs": [],
      "name": "getAllMessages",
      "outputs": [
        {
          "components": [
            {
              "internalType": "address",
              "name": "from",
              "type": "address"
            },
            {
              "internalType": "string",
              "name": "message",
              "type": "string"
            },
            {
              "internalType": "uint256",
              "name": "timestamp",
              "type": "uint256"
            }
          ],
          "internalType": "struct EthCoffee.Message[]",
          "name": "",
          "type": "tuple[]"
        }
      ],
      "stateMutability": "view",
      "type": "function"
    },
    {
      "inputs": [
        {
          "internalType": "address",
          "name": "addr",
          "type": "address"
        }
      ],
      "name": "getAmountForAddress",
      "outputs": [
        {
          "internalType": "uint256",
          "name": "",
          "type": "uint256"
        }
      ],
      "stateMutability": "view",
      "type": "function"
    },
    {
      "inputs": [
        {
          "internalType": "address",
          "name": "addr",
          "type": "address"
        }
      ],
      "name": "getMessagesSent",
      "outputs": [
        {
          "components": [
            {
              "internalType": "address",
              "name": "from",
              "type": "address"
            },
            {
              "internalType": "string",
              "name": "message",
              "type": "string"
            },
            {
              "internalType": "uint256",
              "name": "timestamp",
              "type": "uint256"
            }
          ],
          "internalType": "struct EthCoffee.Message[]",
          "name": "",
          "type": "tuple[]"
        }
      ],
      "stateMutability": "view",
      "type": "function"
    },
    {
      "inputs": [],
      "name": "getTotalCoffeesSent",
      "outputs": [
        {
          "internalType": "uint256",
          "name": "",
          "type": "uint256"
        }
      ],
      "stateMutability": "view",
      "type": "function"
    },
    {
      "inputs": [
        {
          "internalType": "address",
          "name": "",
          "type": "address"
        }
      ],
      "name": "lastMessagedAt",
      "outputs": [
        {
          "internalType": "uint256",
          "name": "",
          "type": "uint256"
        }
      ],
      "stateMutability": "view",
      "type": "function"
    },
    {
      "inputs": [
        {
          "internalType": "address payable",
          "name": "_to",
          "type": "address"
        },
        {
          "internalType": "string",
          "name": "_message",
          "type": "string"
        }
      ],
      "name": "sendCoffee",
      "outputs": [],
      "stateMutability": "payable",
      "type": "function"
    }
  ],
  "bytecode": "0x608060405260016000819055506113948061001b6000396000f3fe6080604052600436106100555760003560e01c80630ff076c91461005a5780632ff4e6e41461008557806353f5e380146100c257806355558573146100ed57806359f523741461012a578063bd7ce4e414610146575b600080fd5b34801561006657600080fd5b5061006f610183565b60405161007c9190610f3e565b60405180910390f35b34801561009157600080fd5b506100ac60048036038101906100a79190610b5d565b610194565b6040516100b99190610f3e565b60405180910390f35b3480156100ce57600080fd5b506100d76101ac565b6040516100e49190610e5c565b60405180910390f35b3480156100f957600080fd5b50610114600480360381019061010f9190610b5d565b6102fd565b6040516101219190610e5c565b60405180910390f35b610144600480360381019061013f9190610b86565b61048d565b005b34801561015257600080fd5b5061016d60048036038101906101689190610b5d565b6109bb565b60405161017a9190610f3e565b60405180910390f35b600061018f6001610a04565b905090565b60056020528060005260406000206000915090505481565b60606002805480602002602001604051908101604052809291908181526020016000905b828210156102f457838290600052602060002090600302016040518060600160405290816000820160009054906101000a900473ffffffffffffffffffffffffffffffffffffffff1673ffffffffffffffffffffffffffffffffffffffff1673ffffffffffffffffffffffffffffffffffffffff16815260200160018201805461025990611136565b80601f016020809104026020016040519081016040528092919081815260200182805461028590611136565b80156102d25780601f106102a7576101008083540402835291602001916102d2565b820191906000526020600020905b8154815290600101906020018083116102b557829003601f168201915b50505050508152602001600282015481525050815260200190600101906101d0565b50505050905090565b6060600360008373ffffffffffffffffffffffffffffffffffffffff1673ffffffffffffffffffffffffffffffffffffffff168152602001908152602001600020805480602002602001604051908101604052809291908181526020016000905b8282101561048257838290600052602060002090600302016040518060600160405290816000820160009054906101000a900473ffffffffffffffffffffffffffffffffffffffff1673ffffffffffffffffffffffffffffffffffffffff1673ffffffffffffffffffffffffffffffffffffffff1681526020016001820180546103e790611136565b80601f016020809104026020016040519081016040528092919081815260200182805461041390611136565b80156104605780601f1061043557610100808354040283529160200191610460565b820191906000526020600020905b81548152906001019060200180831161044357829003601f168201915b505050505081526020016002820154815250508152602001906001019061035e565b505050509050919050565b42601e600560003373ffffffffffffffffffffffffffffffffffffffff1673ffffffffffffffffffffffffffffffffffffffff168152602001908152602001600020546104da9190611050565b1061051a576040517f08c379a000000000000000000000000000000000000000000000000000000000815260040161051190610ede565b60405180910390fd5b80608c81511061055f576040517f08c379a000000000000000000000000000000000000000000000000000000000815260040161055690610e9e565b60405180910390fd5b600034116105a2576040517f08c379a000000000000000000000000000000000000000000000000000000000815260040161059990610ebe565b60405180910390fd5b82600073ffffffffffffffffffffffffffffffffffffffff168173ffffffffffffffffffffffffffffffffffffffff161415610613576040517f08c379a000000000000000000000000000000000000000000000000000000000815260040161060a90610efe565b60405180910390fd5b60026000541415610659576040517f08c379a000000000000000000000000000000000000000000000000000000000815260040161065090610f1e565b60405180910390fd5b600260008190555042600560003373ffffffffffffffffffffffffffffffffffffffff1673ffffffffffffffffffffffffffffffffffffffff16815260200190815260200160002081905550600060405180606001604052808673ffffffffffffffffffffffffffffffffffffffff16815260200185815260200142815250905060008573ffffffffffffffffffffffffffffffffffffffff163460405161070090610e47565b60006040518083038185875af1925050503d806000811461073d576040519150601f19603f3d011682016040523d82523d6000602084013e610742565b606091505b5050905080610786576040517f08c379a000000000000000000000000000000000000000000000000000000000815260040161077d90610e7e565b60405180910390fd5b6107906001610a12565b600360008773ffffffffffffffffffffffffffffffffffffffff1673ffffffffffffffffffffffffffffffffffffffff16815260200190815260200160002082908060018154018082558091505060019003906000526020600020906003020160009091909190915060008201518160000160006101000a81548173ffffffffffffffffffffffffffffffffffffffff021916908373ffffffffffffffffffffffffffffffffffffffff160217905550602082015181600101908051906020019061085c929190610a28565b50604082015181600201555050600282908060018154018082558091505060019003906000526020600020906003020160009091909190915060008201518160000160006101000a81548173ffffffffffffffffffffffffffffffffffffffff021916908373ffffffffffffffffffffffffffffffffffffffff16021790555060208201518160010190805190602001906108f8929190610a28565b5060408201518160020155505034600460008873ffffffffffffffffffffffffffffffffffffffff1673ffffffffffffffffffffffffffffffffffffffff16815260200190815260200160002060008282546109549190611050565b925050819055508573ffffffffffffffffffffffffffffffffffffffff167fcc6c28c7f1afae15888a7b43ee6bd97cd5c0c9b9f01d2969108e841141d67da442876040516109a3929190610f59565b60405180910390a25050600160008190555050505050565b6000600460008373ffffffffffffffffffffffffffffffffffffffff1673ffffffffffffffffffffffffffffffffffffffff168152602001908152602001600020549050919050565b600081600001549050919050565b6001816000016000828254019250508190555050565b828054610a3490611136565b90600052602060002090601f016020900481019282610a565760008555610a9d565b82601f10610a6f57805160ff1916838001178555610a9d565b82800160010185558215610a9d579182015b82811115610a9c578251825591602001919060010190610a81565b5b509050610aaa9190610aae565b5090565b5b80821115610ac7576000816000905550600101610aaf565b5090565b6000610ade610ad984610fae565b610f89565b905082815260208101848484011115610af657600080fd5b610b018482856110f4565b509392505050565b600081359050610b1881611330565b92915050565b600081359050610b2d81611347565b92915050565b600082601f830112610b4457600080fd5b8135610b54848260208601610acb565b91505092915050565b600060208284031215610b6f57600080fd5b6000610b7d84828501610b09565b91505092915050565b60008060408385031215610b9957600080fd5b6000610ba785828601610b1e565b925050602083013567ffffffffffffffff811115610bc457600080fd5b610bd085828601610b33565b9150509250929050565b6000610be68383610dd9565b905092915050565b610bf7816110a6565b82525050565b6000610c0882610fef565b610c128185611012565b935083602082028501610c2485610fdf565b8060005b85811015610c605784840389528151610c418582610bda565b9450610c4c83611005565b925060208a01995050600181019050610c28565b50829750879550505050505092915050565b6000610c7d82610ffa565b610c87818561102e565b9350610c97818560208601611103565b610ca081611226565b840191505092915050565b6000610cb682610ffa565b610cc0818561103f565b9350610cd0818560208601611103565b610cd981611226565b840191505092915050565b6000610cf160188361103f565b9150610cfc82611237565b602082019050919050565b6000610d1460138361103f565b9150610d1f82611260565b602082019050919050565b6000610d37601a8361103f565b9150610d4282611289565b602082019050919050565b6000610d5a60088361103f565b9150610d65826112b2565b602082019050919050565b6000610d7d600083611023565b9150610d88826112db565b600082019050919050565b6000610da060158361103f565b9150610dab826112de565b602082019050919050565b6000610dc3601f8361103f565b9150610dce82611307565b602082019050919050565b6000606083016000830151610df16000860182610bee565b5060208301518482036020860152610e098282610c72565b9150506040830151610e1e6040860182610e29565b508091505092915050565b610e32816110ea565b82525050565b610e41816110ea565b82525050565b6000610e5282610d70565b9150819050919050565b60006020820190508181036000830152610e768184610bfd565b905092915050565b60006020820190508181036000830152610e9781610ce4565b9050919050565b60006020820190508181036000830152610eb781610d07565b9050919050565b60006020820190508181036000830152610ed781610d2a565b9050919050565b60006020820190508181036000830152610ef781610d4d565b9050919050565b60006020820190508181036000830152610f1781610d93565b9050919050565b60006020820190508181036000830152610f3781610db6565b9050919050565b6000602082019050610f536000830184610e38565b92915050565b6000604082019050610f6e6000830185610e38565b8181036020830152610f808184610cab565b90509392505050565b6000610f93610fa4565b9050610f9f8282611168565b919050565b6000604051905090565b600067ffffffffffffffff821115610fc957610fc86111f7565b5b610fd282611226565b9050602081019050919050565b6000819050602082019050919050565b600081519050919050565b600081519050919050565b6000602082019050919050565b600082825260208201905092915050565b600081905092915050565b600082825260208201905092915050565b600082825260208201905092915050565b600061105b826110ea565b9150611066836110ea565b9250827fffffffffffffffffffffffffffffffffffffffffffffffffffffffffffffffff0382111561109b5761109a611199565b5b828201905092915050565b60006110b1826110ca565b9050919050565b60006110c3826110ca565b9050919050565b600073ffffffffffffffffffffffffffffffffffffffff82169050919050565b6000819050919050565b82818337600083830152505050565b60005b83811015611121578082015181840152602081019050611106565b83811115611130576000848401525b50505050565b6000600282049050600182168061114e57607f821691505b60208210811415611162576111616111c8565b5b50919050565b61117182611226565b810181811067ffffffffffffffff821117156111905761118f6111f7565b5b80604052505050565b7f4e487b7100000000000000000000000000000000000000000000000000000000600052601160045260246000fd5b7f4e487b7100000000000000000000000000000000000000000000000000000000600052602260045260246000fd5b7f4e487b7100000000000000000000000000000000000000000000000000000000600052604160045260246000fd5b6000601f19601f8301169050919050565b7f4661696c656420746f207472616e736665722045746865720000000000000000600082015250565b7f4d65737361676520697320746f6f206c6f6e6700000000000000000000000000600082015250565b7f416d6f756e74206d757374206265206d6f7265207468616e2030000000000000600082015250565b7f5761697420333073000000000000000000000000000000000000000000000000600082015250565b50565b7f4d7573742062652076616c696420616464726573730000000000000000000000600082015250565b7f5265656e7472616e637947756172643a207265656e7472616e742063616c6c00600082015250565b611339816110a6565b811461134457600080fd5b50565b611350816110b8565b811461135b57600080fd5b5056fea26469706673582212209b6aa934807dafded4cfffb1fe27f0b68c5bcd9c45ddd0fc0c424026e9345c6164736f6c63430008040033",
  "linkReferences": {},
  "deployedLinkReferences": {}
}