{
  "_format": "hh-sol-artifact-1",
  "contractName": "WavePortal",
  "sourceName": "contracts/WavePortal.sol",
  "abi": [
    {
      "inputs": [],
      "stateMutability": "payable",
      "type": "constructor"
    },
    {
      "anonymous": false,
      "inputs": [
        {
          "indexed": true,
          "internalType": "address",
          "name": "from",
          "type": "address"
        },
        {
          "indexed": false,
          "internalType": "uint256",
          "name": "timestamp",
          "type": "uint256"
        },
        {
          "indexed": false,
          "internalType": "string",
          "name": "message",
          "type": "string"
        }
      ],
      "name": "NewWave",
      "type": "event"
    },
    {
      "inputs": [],
      "name": "getAllWaves",
      "outputs": [
        {
          "components": [
            {
              "internalType": "address",
              "name": "waver",
              "type": "address"
            },
            {
              "internalType": "string",
              "name": "message",
              "type": "string"
            },
            {
              "internalType": "uint256",
              "name": "timestamp",
              "type": "uint256"
            }
          ],
          "internalType": "struct WavePortal.Wave[]",
          "name": "",
          "type": "tuple[]"
        }
      ],
      "stateMutability": "view",
      "type": "function"
    },
    {
      "inputs": [],
      "name": "getTotalWaves",
      "outputs": [
        {
          "internalType": "uint256",
          "name": "",
          "type": "uint256"
        }
      ],
      "stateMutability": "view",
      "type": "function"
    },
    {
      "inputs": [
        {
          "internalType": "address",
          "name": "addr",
          "type": "address"
        }
      ],
      "name": "getWaves",
      "outputs": [
        {
          "components": [
            {
              "internalType": "address",
              "name": "waver",
              "type": "address"
            },
            {
              "internalType": "string",
              "name": "message",
              "type": "string"
            },
            {
              "internalType": "uint256",
              "name": "timestamp",
              "type": "uint256"
            }
          ],
          "internalType": "struct WavePortal.Wave[]",
          "name": "",
          "type": "tuple[]"
        }
      ],
      "stateMutability": "view",
      "type": "function"
    },
    {
      "inputs": [
        {
          "internalType": "address",
          "name": "",
          "type": "address"
        }
      ],
      "name": "lastWavedAt",
      "outputs": [
        {
          "internalType": "uint256",
          "name": "",
          "type": "uint256"
        }
      ],
      "stateMutability": "view",
      "type": "function"
    },
    {
      "inputs": [
        {
          "internalType": "string",
          "name": "_message",
          "type": "string"
        }
      ],
      "name": "wave",
      "outputs": [],
      "stateMutability": "nonpayable",
      "type": "function"
    }
  ],
  "bytecode": "0x6080604052606444426200001491906200002c565b62000020919062000093565b60018190555062000129565b6000620000398262000089565b9150620000468362000089565b9250827fffffffffffffffffffffffffffffffffffffffffffffffffffffffffffffffff038211156200007e576200007d620000cb565b5b828201905092915050565b6000819050919050565b6000620000a08262000089565b9150620000ad8362000089565b925082620000c057620000bf620000fa565b5b828206905092915050565b7f4e487b7100000000000000000000000000000000000000000000000000000000600052601160045260246000fd5b7f4e487b7100000000000000000000000000000000000000000000000000000000600052601260045260246000fd5b6110de80620001396000396000f3fe608060405234801561001057600080fd5b50600436106100575760003560e01c806329dec6e11461005c578063449d46c01461008c5780639a2cdc08146100a8578063a42a4663146100c6578063bd43a908146100f6575b600080fd5b6100766004803603810190610071919061097b565b610114565b6040516100839190610bfe565b60405180910390f35b6100a660048036038101906100a191906109a4565b6102a4565b005b6100b06105c8565b6040516100bd9190610c80565b60405180910390f35b6100e060048036038101906100db919061097b565b6105d9565b6040516100ed9190610c80565b60405180910390f35b6100fe6105f1565b60405161010b9190610bfe565b60405180910390f35b6060600260008373ffffffffffffffffffffffffffffffffffffffff1673ffffffffffffffffffffffffffffffffffffffff168152602001908152602001600020805480602002602001604051908101604052809291908181526020016000905b8282101561029957838290600052602060002090600302016040518060600160405290816000820160009054906101000a900473ffffffffffffffffffffffffffffffffffffffff1673ffffffffffffffffffffffffffffffffffffffff1673ffffffffffffffffffffffffffffffffffffffff1681526020016001820180546101fe90610e66565b80601f016020809104026020016040519081016040528092919081815260200182805461022a90610e66565b80156102775780601f1061024c57610100808354040283529160200191610277565b820191906000526020600020905b81548152906001019060200180831161025a57829003601f168201915b5050505050815260200160028201548152505081526020019060010190610175565b505050509050919050565b42601e600360003373ffffffffffffffffffffffffffffffffffffffff1673ffffffffffffffffffffffffffffffffffffffff168152602001908152602001600020546102f19190610d92565b10610331576040517f08c379a000000000000000000000000000000000000000000000000000000000815260040161032890610c20565b60405180910390fd5b42600360003373ffffffffffffffffffffffffffffffffffffffff1673ffffffffffffffffffffffffffffffffffffffff1681526020019081526020016000208190555061037f6000610742565b600060405180606001604052803373ffffffffffffffffffffffffffffffffffffffff168152602001838152602001428152509050600481908060018154018082558091505060019003906000526020600020906003020160009091909190915060008201518160000160006101000a81548173ffffffffffffffffffffffffffffffffffffffff021916908373ffffffffffffffffffffffffffffffffffffffff160217905550602082015181600101908051906020019061044392919061085b565b50604082015181600201555050600260003373ffffffffffffffffffffffffffffffffffffffff1673ffffffffffffffffffffffffffffffffffffffff16815260200190815260200160002081908060018154018082558091505060019003906000526020600020906003020160009091909190915060008201518160000160006101000a81548173ffffffffffffffffffffffffffffffffffffffff021916908373ffffffffffffffffffffffffffffffffffffffff160217905550602082015181600101908051906020019061051c92919061085b565b506040820151816002015550506064600154424461053a9190610d92565b6105449190610d92565b61054e9190610ec9565b600181905550603260015411610574576000655af3107a4000905061057281610758565b505b3373ffffffffffffffffffffffffffffffffffffffff167f5f7e16dc676677766a70e9c5628aa6c54ddb8b6e5188e2ae1e1f17f1ffbea71642846040516105bc929190610c9b565b60405180910390a25050565b60006105d4600061084d565b905090565b60036020528060005260406000206000915090505481565b60606004805480602002602001604051908101604052809291908181526020016000905b8282101561073957838290600052602060002090600302016040518060600160405290816000820160009054906101000a900473ffffffffffffffffffffffffffffffffffffffff1673ffffffffffffffffffffffffffffffffffffffff1673ffffffffffffffffffffffffffffffffffffffff16815260200160018201805461069e90610e66565b80601f01602080910402602001604051908101604052809291908181526020018280546106ca90610e66565b80156107175780601f106106ec57610100808354040283529160200191610717565b820191906000526020600020905b8154815290600101906020018083116106fa57829003601f168201915b5050505050815260200160028201548152505081526020019060010190610615565b50505050905090565b6001816000016000828254019250508190555050565b804781111561079c576040517f08c379a000000000000000000000000000000000000000000000000000000000815260040161079390610c40565b60405180910390fd5b60003373ffffffffffffffffffffffffffffffffffffffff16836040516107c290610be9565b60006040518083038185875af1925050503d80600081146107ff576040519150601f19603f3d011682016040523d82523d6000602084013e610804565b606091505b5050905080610848576040517f08c379a000000000000000000000000000000000000000000000000000000000815260040161083f90610c60565b60405180910390fd5b505050565b600081600001549050919050565b82805461086790610e66565b90600052602060002090601f01602090048101928261088957600085556108d0565b82601f106108a257805160ff19168380011785556108d0565b828001600101855582156108d0579182015b828111156108cf5782518255916020019190600101906108b4565b5b5090506108dd91906108e1565b5090565b5b808211156108fa5760008160009055506001016108e2565b5090565b600061091161090c84610cf0565b610ccb565b90508281526020810184848401111561092957600080fd5b610934848285610e24565b509392505050565b60008135905061094b81611091565b92915050565b600082601f83011261096257600080fd5b81356109728482602086016108fe565b91505092915050565b60006020828403121561098d57600080fd5b600061099b8482850161093c565b91505092915050565b6000602082840312156109b657600080fd5b600082013567ffffffffffffffff8111156109d057600080fd5b6109dc84828501610951565b91505092915050565b60006109f18383610b7b565b905092915050565b610a0281610de8565b82525050565b6000610a1382610d31565b610a1d8185610d54565b935083602082028501610a2f85610d21565b8060005b85811015610a6b5784840389528151610a4c85826109e5565b9450610a5783610d47565b925060208a01995050600181019050610a33565b50829750879550505050505092915050565b6000610a8882610d3c565b610a928185610d70565b9350610aa2818560208601610e33565b610aab81610fb6565b840191505092915050565b6000610ac182610d3c565b610acb8185610d81565b9350610adb818560208601610e33565b610ae481610fb6565b840191505092915050565b6000610afc600883610d81565b9150610b0782610fc7565b602082019050919050565b6000610b1f603483610d81565b9150610b2a82610ff0565b604082019050919050565b6000610b42602683610d81565b9150610b4d8261103f565b604082019050919050565b6000610b65600083610d65565b9150610b708261108e565b600082019050919050565b6000606083016000830151610b9360008601826109f9565b5060208301518482036020860152610bab8282610a7d565b9150506040830151610bc06040860182610bcb565b508091505092915050565b610bd481610e1a565b82525050565b610be381610e1a565b82525050565b6000610bf482610b58565b9150819050919050565b60006020820190508181036000830152610c188184610a08565b905092915050565b60006020820190508181036000830152610c3981610aef565b9050919050565b60006020820190508181036000830152610c5981610b12565b9050919050565b60006020820190508181036000830152610c7981610b35565b9050919050565b6000602082019050610c956000830184610bda565b92915050565b6000604082019050610cb06000830185610bda565b8181036020830152610cc28184610ab6565b90509392505050565b6000610cd5610ce6565b9050610ce18282610e98565b919050565b6000604051905090565b600067ffffffffffffffff821115610d0b57610d0a610f87565b5b610d1482610fb6565b9050602081019050919050565b6000819050602082019050919050565b600081519050919050565b600081519050919050565b6000602082019050919050565b600082825260208201905092915050565b600081905092915050565b600082825260208201905092915050565b600082825260208201905092915050565b6000610d9d82610e1a565b9150610da883610e1a565b9250827fffffffffffffffffffffffffffffffffffffffffffffffffffffffffffffffff03821115610ddd57610ddc610efa565b5b828201905092915050565b6000610df382610dfa565b9050919050565b600073ffffffffffffffffffffffffffffffffffffffff82169050919050565b6000819050919050565b82818337600083830152505050565b60005b83811015610e51578082015181840152602081019050610e36565b83811115610e60576000848401525b50505050565b60006002820490506001821680610e7e57607f821691505b60208210811415610e9257610e91610f58565b5b50919050565b610ea182610fb6565b810181811067ffffffffffffffff82111715610ec057610ebf610f87565b5b80604052505050565b6000610ed482610e1a565b9150610edf83610e1a565b925082610eef57610eee610f29565b5b828206905092915050565b7f4e487b7100000000000000000000000000000000000000000000000000000000600052601160045260246000fd5b7f4e487b7100000000000000000000000000000000000000000000000000000000600052601260045260246000fd5b7f4e487b7100000000000000000000000000000000000000000000000000000000600052602260045260246000fd5b7f4e487b7100000000000000000000000000000000000000000000000000000000600052604160045260246000fd5b6000601f19601f8301169050919050565b7f5761697420333073000000000000000000000000000000000000000000000000600082015250565b7f547279696e6720746f207769746864726177206d6f7265206d6f6e657920746860008201527f616e207468697320636f6e747261637420686173000000000000000000000000602082015250565b7f4661696c656420746f207769746864726177206d6f6e65792066726f6d20636f60008201527f6e74726163740000000000000000000000000000000000000000000000000000602082015250565b50565b61109a81610de8565b81146110a557600080fd5b5056fea26469706673582212207a00aa64171547a2d7280cdcabac045f69ece396dc7deabc85c39767534a241964736f6c63430008040033",
  "linkReferences": {},
  "deployedLinkReferences": {}
}